{
  "_format": "hh-sol-artifact-1",
  "contractName": "BSWToken",
  "sourceName": "contracts/biswapToken.sol",
  "abi": [
    {
      "anonymous": false,
      "inputs": [
        {
          "indexed": true,
          "internalType": "address",
          "name": "owner",
          "type": "address"
        },
        {
          "indexed": true,
          "internalType": "address",
          "name": "spender",
          "type": "address"
        },
        {
          "indexed": false,
          "internalType": "uint256",
          "name": "value",
          "type": "uint256"
        }
      ],
      "name": "Approval",
      "type": "event"
    },
    {
      "anonymous": false,
      "inputs": [
        {
          "indexed": true,
          "internalType": "address",
          "name": "delegator",
          "type": "address"
        },
        {
          "indexed": true,
          "internalType": "address",
          "name": "fromDelegate",
          "type": "address"
        },
        {
          "indexed": true,
          "internalType": "address",
          "name": "toDelegate",
          "type": "address"
        }
      ],
      "name": "DelegateChanged",
      "type": "event"
    },
    {
      "anonymous": false,
      "inputs": [
        {
          "indexed": true,
          "internalType": "address",
          "name": "delegate",
          "type": "address"
        },
        {
          "indexed": false,
          "internalType": "uint256",
          "name": "previousBalance",
          "type": "uint256"
        },
        {
          "indexed": false,
          "internalType": "uint256",
          "name": "newBalance",
          "type": "uint256"
        }
      ],
      "name": "DelegateVotesChanged",
      "type": "event"
    },
    {
      "anonymous": false,
      "inputs": [
        {
          "indexed": true,
          "internalType": "address",
          "name": "previousOwner",
          "type": "address"
        },
        {
          "indexed": true,
          "internalType": "address",
          "name": "newOwner",
          "type": "address"
        }
      ],
      "name": "OwnershipTransferred",
      "type": "event"
    },
    {
      "anonymous": false,
      "inputs": [
        {
          "indexed": true,
          "internalType": "address",
          "name": "from",
          "type": "address"
        },
        {
          "indexed": true,
          "internalType": "address",
          "name": "to",
          "type": "address"
        },
        {
          "indexed": false,
          "internalType": "uint256",
          "name": "value",
          "type": "uint256"
        }
      ],
      "name": "Transfer",
      "type": "event"
    },
    {
      "inputs": [],
      "name": "DELEGATION_TYPEHASH",
      "outputs": [
        {
          "internalType": "bytes32",
          "name": "",
          "type": "bytes32"
        }
      ],
      "stateMutability": "view",
      "type": "function"
    },
    {
      "inputs": [],
      "name": "DOMAIN_TYPEHASH",
      "outputs": [
        {
          "internalType": "bytes32",
          "name": "",
          "type": "bytes32"
        }
      ],
      "stateMutability": "view",
      "type": "function"
    },
    {
      "inputs": [
        {
          "internalType": "address",
          "name": "_addMinter",
          "type": "address"
        }
      ],
      "name": "addMinter",
      "outputs": [
        {
          "internalType": "bool",
          "name": "",
          "type": "bool"
        }
      ],
      "stateMutability": "nonpayable",
      "type": "function"
    },
    {
      "inputs": [
        {
          "internalType": "address",
          "name": "owner",
          "type": "address"
        },
        {
          "internalType": "address",
          "name": "spender",
          "type": "address"
        }
      ],
      "name": "allowance",
      "outputs": [
        {
          "internalType": "uint256",
          "name": "",
          "type": "uint256"
        }
      ],
      "stateMutability": "view",
      "type": "function"
    },
    {
      "inputs": [
        {
          "internalType": "address",
          "name": "spender",
          "type": "address"
        },
        {
          "internalType": "uint256",
          "name": "amount",
          "type": "uint256"
        }
      ],
      "name": "approve",
      "outputs": [
        {
          "internalType": "bool",
          "name": "",
          "type": "bool"
        }
      ],
      "stateMutability": "nonpayable",
      "type": "function"
    },
    {
      "inputs": [
        {
          "internalType": "address",
          "name": "account",
          "type": "address"
        }
      ],
      "name": "balanceOf",
      "outputs": [
        {
          "internalType": "uint256",
          "name": "",
          "type": "uint256"
        }
      ],
      "stateMutability": "view",
      "type": "function"
    },
    {
      "inputs": [
        {
          "internalType": "address",
          "name": "",
          "type": "address"
        },
        {
          "internalType": "uint32",
          "name": "",
          "type": "uint32"
        }
      ],
      "name": "checkpoints",
      "outputs": [
        {
          "internalType": "uint32",
          "name": "fromBlock",
          "type": "uint32"
        },
        {
          "internalType": "uint256",
          "name": "votes",
          "type": "uint256"
        }
      ],
      "stateMutability": "view",
      "type": "function"
    },
    {
      "inputs": [],
      "name": "decimals",
      "outputs": [
        {
          "internalType": "uint8",
          "name": "",
          "type": "uint8"
        }
      ],
      "stateMutability": "view",
      "type": "function"
    },
    {
      "inputs": [
        {
          "internalType": "address",
          "name": "spender",
          "type": "address"
        },
        {
          "internalType": "uint256",
          "name": "subtractedValue",
          "type": "uint256"
        }
      ],
      "name": "decreaseAllowance",
      "outputs": [
        {
          "internalType": "bool",
          "name": "",
          "type": "bool"
        }
      ],
      "stateMutability": "nonpayable",
      "type": "function"
    },
    {
      "inputs": [
        {
          "internalType": "address",
          "name": "_delMinter",
          "type": "address"
        }
      ],
      "name": "delMinter",
      "outputs": [
        {
          "internalType": "bool",
          "name": "",
          "type": "bool"
        }
      ],
      "stateMutability": "nonpayable",
      "type": "function"
    },
    {
      "inputs": [
        {
          "internalType": "address",
          "name": "delegatee",
          "type": "address"
        }
      ],
      "name": "delegate",
      "outputs": [],
      "stateMutability": "nonpayable",
      "type": "function"
    },
    {
      "inputs": [
        {
          "internalType": "address",
          "name": "delegatee",
          "type": "address"
        },
        {
          "internalType": "uint256",
          "name": "nonce",
          "type": "uint256"
        },
        {
          "internalType": "uint256",
          "name": "expiry",
          "type": "uint256"
        },
        {
          "internalType": "uint8",
          "name": "v",
          "type": "uint8"
        },
        {
          "internalType": "bytes32",
          "name": "r",
          "type": "bytes32"
        },
        {
          "internalType": "bytes32",
          "name": "s",
          "type": "bytes32"
        }
      ],
      "name": "delegateBySig",
      "outputs": [],
      "stateMutability": "nonpayable",
      "type": "function"
    },
    {
      "inputs": [
        {
          "internalType": "address",
          "name": "delegator",
          "type": "address"
        }
      ],
      "name": "delegates",
      "outputs": [
        {
          "internalType": "address",
          "name": "",
          "type": "address"
        }
      ],
      "stateMutability": "view",
      "type": "function"
    },
    {
      "inputs": [
        {
          "internalType": "address",
          "name": "account",
          "type": "address"
        }
      ],
      "name": "getCurrentVotes",
      "outputs": [
        {
          "internalType": "uint256",
          "name": "",
          "type": "uint256"
        }
      ],
      "stateMutability": "view",
      "type": "function"
    },
    {
      "inputs": [
        {
          "internalType": "uint256",
          "name": "_index",
          "type": "uint256"
        }
      ],
      "name": "getMinter",
      "outputs": [
        {
          "internalType": "address",
          "name": "",
          "type": "address"
        }
      ],
      "stateMutability": "view",
      "type": "function"
    },
    {
      "inputs": [],
      "name": "getMinterLength",
      "outputs": [
        {
          "internalType": "uint256",
          "name": "",
          "type": "uint256"
        }
      ],
      "stateMutability": "view",
      "type": "function"
    },
    {
      "inputs": [],
      "name": "getOwner",
      "outputs": [
        {
          "internalType": "address",
          "name": "",
          "type": "address"
        }
      ],
      "stateMutability": "view",
      "type": "function"
    },
    {
      "inputs": [
        {
          "internalType": "address",
          "name": "account",
          "type": "address"
        },
        {
          "internalType": "uint256",
          "name": "blockNumber",
          "type": "uint256"
        }
      ],
      "name": "getPriorVotes",
      "outputs": [
        {
          "internalType": "uint256",
          "name": "",
          "type": "uint256"
        }
      ],
      "stateMutability": "view",
      "type": "function"
    },
    {
      "inputs": [
        {
          "internalType": "address",
          "name": "spender",
          "type": "address"
        },
        {
          "internalType": "uint256",
          "name": "addedValue",
          "type": "uint256"
        }
      ],
      "name": "increaseAllowance",
      "outputs": [
        {
          "internalType": "bool",
          "name": "",
          "type": "bool"
        }
      ],
      "stateMutability": "nonpayable",
      "type": "function"
    },
    {
      "inputs": [
        {
          "internalType": "address",
          "name": "account",
          "type": "address"
        }
      ],
      "name": "isMinter",
      "outputs": [
        {
          "internalType": "bool",
          "name": "",
          "type": "bool"
        }
      ],
      "stateMutability": "view",
      "type": "function"
    },
    {
      "inputs": [],
      "name": "maxSupply",
      "outputs": [
        {
          "internalType": "uint256",
          "name": "",
          "type": "uint256"
        }
      ],
      "stateMutability": "view",
      "type": "function"
    },
    {
      "inputs": [
        {
          "internalType": "address",
          "name": "_to",
          "type": "address"
        },
        {
          "internalType": "uint256",
          "name": "_amount",
          "type": "uint256"
        }
      ],
      "name": "mint",
      "outputs": [
        {
          "internalType": "bool",
          "name": "",
          "type": "bool"
        }
      ],
      "stateMutability": "nonpayable",
      "type": "function"
    },
    {
      "inputs": [
        {
          "internalType": "uint256",
          "name": "amount",
          "type": "uint256"
        }
      ],
      "name": "mint",
      "outputs": [
        {
          "internalType": "bool",
          "name": "",
          "type": "bool"
        }
      ],
      "stateMutability": "nonpayable",
      "type": "function"
    },
    {
      "inputs": [],
      "name": "name",
      "outputs": [
        {
          "internalType": "string",
          "name": "",
          "type": "string"
        }
      ],
      "stateMutability": "view",
      "type": "function"
    },
    {
      "inputs": [
        {
          "internalType": "address",
          "name": "",
          "type": "address"
        }
      ],
      "name": "nonces",
      "outputs": [
        {
          "internalType": "uint256",
          "name": "",
          "type": "uint256"
        }
      ],
      "stateMutability": "view",
      "type": "function"
    },
    {
      "inputs": [
        {
          "internalType": "address",
          "name": "",
          "type": "address"
        }
      ],
      "name": "numCheckpoints",
      "outputs": [
        {
          "internalType": "uint32",
          "name": "",
          "type": "uint32"
        }
      ],
      "stateMutability": "view",
      "type": "function"
    },
    {
      "inputs": [],
      "name": "owner",
      "outputs": [
        {
          "internalType": "address",
          "name": "",
          "type": "address"
        }
      ],
      "stateMutability": "view",
      "type": "function"
    },
    {
      "inputs": [],
      "name": "preMineSupply",
      "outputs": [
        {
          "internalType": "uint256",
          "name": "",
          "type": "uint256"
        }
      ],
      "stateMutability": "view",
      "type": "function"
    },
    {
      "inputs": [],
      "name": "renounceOwnership",
      "outputs": [],
      "stateMutability": "nonpayable",
      "type": "function"
    },
    {
      "inputs": [],
      "name": "symbol",
      "outputs": [
        {
          "internalType": "string",
          "name": "",
          "type": "string"
        }
      ],
      "stateMutability": "view",
      "type": "function"
    },
    {
      "inputs": [],
      "name": "totalSupply",
      "outputs": [
        {
          "internalType": "uint256",
          "name": "",
          "type": "uint256"
        }
      ],
      "stateMutability": "view",
      "type": "function"
    },
    {
      "inputs": [
        {
          "internalType": "address",
          "name": "recipient",
          "type": "address"
        },
        {
          "internalType": "uint256",
          "name": "amount",
          "type": "uint256"
        }
      ],
      "name": "transfer",
      "outputs": [
        {
          "internalType": "bool",
          "name": "",
          "type": "bool"
        }
      ],
      "stateMutability": "nonpayable",
      "type": "function"
    },
    {
      "inputs": [
        {
          "internalType": "address",
          "name": "sender",
          "type": "address"
        },
        {
          "internalType": "address",
          "name": "recipient",
          "type": "address"
        },
        {
          "internalType": "uint256",
          "name": "amount",
          "type": "uint256"
        }
      ],
      "name": "transferFrom",
      "outputs": [
        {
          "internalType": "bool",
          "name": "",
          "type": "bool"
        }
      ],
      "stateMutability": "nonpayable",
      "type": "function"
    },
    {
      "inputs": [
        {
          "internalType": "address",
          "name": "newOwner",
          "type": "address"
        }
      ],
      "name": "transferOwnership",
      "outputs": [],
      "stateMutability": "nonpayable",
      "type": "function"
    }
  ],
  "bytecode": "0x60806040523480156200001157600080fd5b506040518060400160405280600681526020016504269737761760d41b8152506040518060400160405280600381526020016242535760e81b81525060006200005f6200010260201b60201c565b600080546001600160a01b0319166001600160a01b0383169081178255604051929350917f8be0079c531659141344cd1fd0a4f28419497f9722a3daafe3b4186f6b6457e0908290a3508151620000be906004906020850190620002ab565b508051620000d4906005906020840190620002ab565b506006805460ff19166012179055620000f9336a084595161401484a00000062000106565b50505062000347565b3390565b60006001600160a01b03831662000164576040805162461bcd60e51b815260206004820152601f60248201527f42455032303a206d696e7420746f20746865207a65726f206164647265737300604482015290519081900360640190fd5b6b024306c4097859c43c0000006200018d600354846200024960201b6200148a1790919060201c565b11156200019d5750600062000243565b620001b9826003546200024960201b6200148a1790919060201c565b6003556001600160a01b038316600090815260016020908152604090912054620001ee9184906200148a62000249821b17901c565b6001600160a01b03841660008181526001602090815260408083209490945583518681529351929391927fddf252ad1be2c89b69c2b068fc378daa952ba7f163c4a11628f55a4df523b3ef9281900390910190a35b92915050565b600082820183811015620002a4576040805162461bcd60e51b815260206004820152601b60248201527f536166654d6174683a206164646974696f6e206f766572666c6f770000000000604482015290519081900360640190fd5b9392505050565b828054600181600116156101000203166002900490600052602060002090601f016020900481019282601f10620002ee57805160ff19168380011785556200031e565b828001600101855582156200031e579182015b828111156200031e57825182559160200191906001019062000301565b506200032c92915062000330565b5090565b5b808211156200032c576000815560010162000331565b6121f780620003576000396000f3fe608060405234801561001057600080fd5b50600436106102265760003560e01c8063782d6fe11161012a578063a9059cbb116100bd578063d5abeb011161008c578063e7a324dc11610071578063e7a324dc146106ae578063f1127ed8146106b6578063f2fde38b1461070857610226565b8063d5abeb0114610678578063dd62ed3e1461068057610226565b8063a9059cbb146105b9578063aa271e1a146105e5578063b4b5ea571461060b578063c3cda5201461063157610226565b806395d89b41116100f957806395d89b4114610542578063983b2d561461054a578063a0712d6814610570578063a457c2d71461058d57610226565b8063782d6fe1146104e05780637ecebe001461050c578063893d20e8146105325780638da5cb5b1461053a57610226565b8063313ce567116101bd5780635b7121f81161018c5780636fcfff45116101715780636fcfff451461047357806370a08231146104b2578063715018a6146104d857610226565b80635b7121f81461042e5780635c19a95c1461044b57610226565b8063313ce56714610376578063395093511461039457806340c10f19146103c0578063587cde1e146103ec57610226565b806318160ddd116101f957806318160ddd1461030a57806320606b701461031257806323338b881461031a57806323b872dd1461034057610226565b80630323aac71461022b57806306fdde0314610245578063095ea7b3146102c25780630c16ea8314610302575b600080fd5b61023361072e565b60408051918252519081900360200190f35b61024d61073f565b6040805160208082528351818301528351919283929083019185019080838360005b8381101561028757818101518382015260200161026f565b50505050905090810190601f1680156102b45780820380516001836020036101000a031916815260200191505b509250505060405180910390f35b6102ee600480360360408110156102d857600080fd5b506001600160a01b0381351690602001356107d5565b604080519115158252519081900360200190f35b6102336107f3565b610233610802565b610233610808565b6102ee6004803603602081101561033057600080fd5b50356001600160a01b031661082c565b6102ee6004803603606081101561035657600080fd5b506001600160a01b038135811691602081013590911690604001356108e8565b61037e61096f565b6040805160ff9092168252519081900360200190f35b6102ee600480360360408110156103aa57600080fd5b506001600160a01b038135169060200135610978565b6102ee600480360360408110156103d657600080fd5b506001600160a01b0381351690602001356109c6565b6104126004803603602081101561040257600080fd5b50356001600160a01b0316610a52565b604080516001600160a01b039092168252519081900360200190f35b6104126004803603602081101561044457600080fd5b5035610a70565b6104716004803603602081101561046157600080fd5b50356001600160a01b0316610b46565b005b6104996004803603602081101561048957600080fd5b50356001600160a01b0316610b53565b6040805163ffffffff9092168252519081900360200190f35b610233600480360360208110156104c857600080fd5b50356001600160a01b0316610b6b565b610471610b86565b610233600480360360408110156104f657600080fd5b506001600160a01b038135169060200135610c47565b6102336004803603602081101561052257600080fd5b50356001600160a01b0316610e4f565b610412610e61565b610412610e67565b61024d610e76565b6102ee6004803603602081101561056057600080fd5b50356001600160a01b0316610ed7565b6102ee6004803603602081101561058657600080fd5b5035610f93565b6102ee600480360360408110156105a357600080fd5b506001600160a01b038135169060200135611010565b6102ee600480360360408110156105cf57600080fd5b506001600160a01b038135169060200135611078565b6102ee600480360360208110156105fb57600080fd5b50356001600160a01b031661108c565b6102336004803603602081101561062157600080fd5b50356001600160a01b0316611099565b610471600480360360c081101561064757600080fd5b506001600160a01b038135169060208101359060408101359060ff6060820135169060808101359060a001356110fd565b61023361138b565b6102336004803603604081101561069657600080fd5b506001600160a01b038135811691602001351661139b565b6102336113c6565b6106e8600480360360408110156106cc57600080fd5b5080356001600160a01b0316906020013563ffffffff166113ea565b6040805163ffffffff909316835260208301919091528051918290030190f35b6104716004803603602081101561071e57600080fd5b50356001600160a01b0316611417565b600061073a60076114e4565b905090565b60048054604080516020601f60026000196101006001881615020190951694909404938401819004810282018101909252828152606093909290918301828280156107cb5780601f106107a0576101008083540402835291602001916107cb565b820191906000526020600020905b8154815290600101906020018083116107ae57829003601f168201915b5050505050905090565b60006107e96107e26114ef565b84846114f3565b5060015b92915050565b6a084595161401484a00000090565b60035490565b7f8cad95687ba82c2ce50e74f7b754645e5117c3a5bec8151c0726d5857980a86681565b60006108366114ef565b6000546001600160a01b03908116911614610898576040805162461bcd60e51b815260206004820181905260248201527f4f776e61626c653a2063616c6c6572206973206e6f7420746865206f776e6572604482015290519081900360640190fd5b6001600160a01b0382166108dd5760405162461bcd60e51b81526004018080602001828103825260238152602001806120256023913960400191505060405180910390fd5b6107ed6007836115df565b60006108f58484846115f4565b610965846109016114ef565b6109608560405180606001604052806028815260200161206b602891396001600160a01b038a1660009081526002602052604081209061093f6114ef565b6001600160a01b031681526020810191909152604001600020549190611746565b6114f3565b5060019392505050565b60065460ff1690565b60006107e96109856114ef565b8461096085600260006109966114ef565b6001600160a01b03908116825260208083019390935260409182016000908120918c16815292529020549061148a565b60006109d13361108c565b610a22576040805162461bcd60e51b815260206004820152601860248201527f63616c6c6572206973206e6f7420746865206d696e7465720000000000000000604482015290519081900360640190fd5b610a2c83836117dd565b506001600160a01b038084166000908152600960205260408120546107e99216846118f7565b6001600160a01b039081166000908152600960205260409020541690565b6000610a7a6114ef565b6000546001600160a01b03908116911614610adc576040805162461bcd60e51b815260206004820181905260248201527f4f776e61626c653a2063616c6c6572206973206e6f7420746865206f776e6572604482015290519081900360640190fd5b6001610ae661072e565b03821115610b3b576040805162461bcd60e51b815260206004820152601860248201527f4253573a20696e646578206f7574206f6620626f756e64730000000000000000604482015290519081900360640190fd5b6107ed600783611a39565b610b503382611a45565b50565b600b6020526000908152604090205463ffffffff1681565b6001600160a01b031660009081526001602052604090205490565b610b8e6114ef565b6000546001600160a01b03908116911614610bf0576040805162461bcd60e51b815260206004820181905260248201527f4f776e61626c653a2063616c6c6572206973206e6f7420746865206f776e6572604482015290519081900360640190fd5b600080546040516001600160a01b03909116907f8be0079c531659141344cd1fd0a4f28419497f9722a3daafe3b4186f6b6457e0908390a36000805473ffffffffffffffffffffffffffffffffffffffff19169055565b6000438210610c875760405162461bcd60e51b81526004018080602001828103825260268152602001806120b46026913960400191505060405180910390fd5b6001600160a01b0383166000908152600b602052604090205463ffffffff1680610cb55760009150506107ed565b6001600160a01b0384166000908152600a6020908152604080832063ffffffff600019860181168552925290912054168310610d24576001600160a01b0384166000908152600a602090815260408083206000199490940163ffffffff168352929052206001015490506107ed565b6001600160a01b0384166000908152600a6020908152604080832083805290915290205463ffffffff16831015610d5f5760009150506107ed565b600060001982015b8163ffffffff168163ffffffff161115610e1857600282820363ffffffff16048103610d91611f57565b506001600160a01b0387166000908152600a6020908152604080832063ffffffff808616855290835292819020815180830190925280549093168082526001909301549181019190915290871415610df3576020015194506107ed9350505050565b805163ffffffff16871115610e0a57819350610e11565b6001820392505b5050610d67565b506001600160a01b0385166000908152600a6020908152604080832063ffffffff9094168352929052206001015491505092915050565b600c6020526000908152604090205481565b600061073a5b6000546001600160a01b031690565b60058054604080516020601f60026000196101006001881615020190951694909404938401819004810282018101909252828152606093909290918301828280156107cb5780601f106107a0576101008083540402835291602001916107cb565b6000610ee16114ef565b6000546001600160a01b03908116911614610f43576040805162461bcd60e51b815260206004820181905260248201527f4f776e61626c653a2063616c6c6572206973206e6f7420746865206f776e6572604482015290519081900360640190fd5b6001600160a01b038216610f885760405162461bcd60e51b81526004018080602001828103825260238152602001806120486023913960400191505060405180910390fd5b6107ed600783611ae7565b6000610f9d6114ef565b6000546001600160a01b03908116911614610fff576040805162461bcd60e51b815260206004820181905260248201527f4f776e61626c653a2063616c6c6572206973206e6f7420746865206f776e6572604482015290519081900360640190fd5b6107e961100a6114ef565b836117dd565b60006107e961101d6114ef565b846109608560405180606001604052806025815260200161215660259139600260006110476114ef565b6001600160a01b03908116825260208083019390935260409182016000908120918d16815292529020549190611746565b60006107e96110856114ef565b84846115f4565b60006107ed600783611afc565b6001600160a01b0381166000908152600b602052604081205463ffffffff16806110c45760006110f6565b6001600160a01b0383166000908152600a6020908152604080832063ffffffff60001986011684529091529020600101545b9392505050565b60007f8cad95687ba82c2ce50e74f7b754645e5117c3a5bec8151c0726d5857980a86661112861073f565b80519060200120611137611b11565b60408051602080820195909552808201939093526060830191909152306080808401919091528151808403909101815260a0830182528051908401207fe48329057bfd03d55e49b547132e39cffd9c1820ad7b9d4c5307691425d15adf60c08401526001600160a01b038b1660e084015261010083018a90526101208084018a905282518085039091018152610140840183528051908501207f19010000000000000000000000000000000000000000000000000000000000006101608501526101628401829052610182808501829052835180860390910181526101a285018085528151918701919091206000918290526101c2860180865281905260ff8b166101e287015261020286018a90526102228601899052935192965090949293909260019261024280840193601f198301929081900390910190855afa158015611285573d6000803e3d6000fd5b5050604051601f1901519150506001600160a01b0381166112d75760405162461bcd60e51b8152600401808060200182810382526025815260200180611f916025913960400191505060405180910390fd5b6001600160a01b0381166000908152600c6020526040902080546001810190915589146113355760405162461bcd60e51b81526004018080602001828103825260218152602001806120936021913960400191505060405180910390fd5b874211156113745760405162461bcd60e51b815260040180806020018281038252602581526020018061217b6025913960400191505060405180910390fd5b61137e818b611a45565b505050505b505050505050565b6b024306c4097859c43c00000090565b6001600160a01b03918216600090815260026020908152604080832093909416825291909152205490565b7fe48329057bfd03d55e49b547132e39cffd9c1820ad7b9d4c5307691425d15adf81565b600a6020908152600092835260408084209091529082529020805460019091015463ffffffff9091169082565b61141f6114ef565b6000546001600160a01b03908116911614611481576040805162461bcd60e51b815260206004820181905260248201527f4f776e61626c653a2063616c6c6572206973206e6f7420746865206f776e6572604482015290519081900360640190fd5b610b5081611b15565b6000828201838110156110f6576040805162461bcd60e51b815260206004820152601b60248201527f536166654d6174683a206164646974696f6e206f766572666c6f770000000000604482015290519081900360640190fd5b60006107ed82611bc2565b3390565b6001600160a01b0383166115385760405162461bcd60e51b8152600401808060200182810382526024815260200180611fdb6024913960400191505060405180910390fd5b6001600160a01b03821661157d5760405162461bcd60e51b81526004018080602001828103825260228152602001806121a06022913960400191505060405180910390fd5b6001600160a01b03808416600081815260026020908152604080832094871680845294825291829020859055815185815291517f8c5be1e5ebec7d5bd14f71427d1e84f3dd0314c0f7b2291e5b200ac8c7c3b9259281900390910190a3505050565b60006110f6836001600160a01b038416611bc6565b6001600160a01b0383166116395760405162461bcd60e51b8152600401808060200182810382526025815260200180611fb66025913960400191505060405180910390fd5b6001600160a01b03821661167e5760405162461bcd60e51b81526004018080602001828103825260238152602001806121336023913960400191505060405180910390fd5b6116bb8160405180606001604052806026815260200161210d602691396001600160a01b0386166000908152600160205260409020549190611746565b6001600160a01b0380851660009081526001602052604080822093909355908416815220546116ea908261148a565b6001600160a01b0380841660008181526001602090815260409182902094909455805185815290519193928716927fddf252ad1be2c89b69c2b068fc378daa952ba7f163c4a11628f55a4df523b3ef92918290030190a3505050565b600081848411156117d55760405162461bcd60e51b81526004018080602001828103825283818151815260200191508051906020019080838360005b8381101561179a578181015183820152602001611782565b50505050905090810190601f1680156117c75780820380516001836020036101000a031916815260200191505b509250505060405180910390fd5b505050900390565b60006001600160a01b03831661183a576040805162461bcd60e51b815260206004820152601f60248201527f42455032303a206d696e7420746f20746865207a65726f206164647265737300604482015290519081900360640190fd5b6b024306c4097859c43c00000061185c6003548461148a90919063ffffffff16565b111561186a575060006107ed565b600354611877908361148a565b6003556001600160a01b03831660009081526001602052604090205461189d908361148a565b6001600160a01b03841660008181526001602090815260408083209490945583518681529351929391927fddf252ad1be2c89b69c2b068fc378daa952ba7f163c4a11628f55a4df523b3ef9281900390910190a392915050565b816001600160a01b0316836001600160a01b0316141580156119195750600081115b15611a34576001600160a01b038316156119ab576001600160a01b0383166000908152600b602052604081205463ffffffff16908161195957600061198b565b6001600160a01b0385166000908152600a6020908152604080832063ffffffff60001987011684529091529020600101545b905060006119998285611c8c565b90506119a786848484611cce565b5050505b6001600160a01b03821615611a34576001600160a01b0382166000908152600b602052604081205463ffffffff1690816119e6576000611a18565b6001600160a01b0384166000908152600a6020908152604080832063ffffffff60001987011684529091529020600101545b90506000611a26828561148a565b905061138385848484611cce565b505050565b60006110f68383611e33565b6001600160a01b0380831660009081526009602052604081205490911690611a6c84610b6b565b6001600160a01b03858116600081815260096020526040808220805473ffffffffffffffffffffffffffffffffffffffff1916898616908117909155905194955093928616927f3134e8a2e6d97e929a7e54011ea5485d7d196dd5f0ba4d4ef95803e8e3fc257f9190a4611ae18284836118f7565b50505050565b60006110f6836001600160a01b038416611e97565b60006110f6836001600160a01b038416611ee1565b4690565b6001600160a01b038116611b5a5760405162461bcd60e51b8152600401808060200182810382526026815260200180611fff6026913960400191505060405180910390fd5b600080546040516001600160a01b03808516939216917f8be0079c531659141344cd1fd0a4f28419497f9722a3daafe3b4186f6b6457e091a36000805473ffffffffffffffffffffffffffffffffffffffff19166001600160a01b0392909216919091179055565b5490565b60008181526001830160205260408120548015611c825783546000198083019190810190600090879083908110611bf957fe5b9060005260206000200154905080876000018481548110611c1657fe5b600091825260208083209091019290925582815260018981019092526040902090840190558654879080611c4657fe5b600190038181906000526020600020016000905590558660010160008781526020019081526020016000206000905560019450505050506107ed565b60009150506107ed565b60006110f683836040518060400160405280601e81526020017f536166654d6174683a207375627472616374696f6e206f766572666c6f770000815250611746565b6000611cf2436040518060600160405280603381526020016120da60339139611ef9565b905060008463ffffffff16118015611d3b57506001600160a01b0385166000908152600a6020908152604080832063ffffffff6000198901811685529252909120548282169116145b15611d78576001600160a01b0385166000908152600a6020908152604080832063ffffffff60001989011684529091529020600101829055611de9565b60408051808201825263ffffffff808416825260208083018681526001600160a01b038a166000818152600a84528681208b8616825284528681209551865490861663ffffffff199182161787559251600196870155908152600b9092529390208054928801909116919092161790555b604080518481526020810184905281516001600160a01b038816927fdec2bacdd2f05b59de34da9b523dff8be42e5e38e818c82fdb0bae774387a724928290030190a25050505050565b81546000908210611e755760405162461bcd60e51b8152600401808060200182810382526022815260200180611f6f6022913960400191505060405180910390fd5b826000018281548110611e8457fe5b9060005260206000200154905092915050565b6000611ea38383611ee1565b611ed9575081546001818101845560008481526020808220909301849055845484825282860190935260409020919091556107ed565b5060006107ed565b60009081526001919091016020526040902054151590565b6000816401000000008410611f4f5760405162461bcd60e51b815260206004820181815283516024840152835190928392604490910191908501908083836000831561179a578181015183820152602001611782565b509192915050565b60408051808201909152600080825260208201529056fe456e756d657261626c655365743a20696e646578206f7574206f6620626f756e64734253573a3a64656c656761746542795369673a20696e76616c6964207369676e617475726542455032303a207472616e736665722066726f6d20746865207a65726f206164647265737342455032303a20617070726f76652066726f6d20746865207a65726f20616464726573734f776e61626c653a206e6577206f776e657220697320746865207a65726f20616464726573734253573a205f64656c4d696e74657220697320746865207a65726f20616464726573734253573a205f6164644d696e74657220697320746865207a65726f206164647265737342455032303a207472616e7366657220616d6f756e74206578636565647320616c6c6f77616e63654253573a3a64656c656761746542795369673a20696e76616c6964206e6f6e63654253573a3a6765745072696f72566f7465733a206e6f74207965742064657465726d696e65644253573a3a5f7772697465436865636b706f696e743a20626c6f636b206e756d6265722065786365656473203332206269747342455032303a207472616e7366657220616d6f756e7420657863656564732062616c616e636542455032303a207472616e7366657220746f20746865207a65726f206164647265737342455032303a2064656372656173656420616c6c6f77616e63652062656c6f77207a65726f4253573a3a64656c656761746542795369673a207369676e6174757265206578706972656442455032303a20617070726f766520746f20746865207a65726f2061646472657373a2646970667358221220cda12200207faeb66d7d75687d1bb5d1943e7ec05730e8416ef658c7383a149264736f6c634300060c0033",
  "linkReferences": {},
  "deployedLinkReferences": {}
}