{
  "_format": "hh-sol-artifact-1",
  "contractName": "SmartChefV2",
  "sourceName": "contracts/SmartChefV2.sol",
  "abi": [
    {
      "inputs": [
        {
          "internalType": "contract IERC20",
          "name": "_stakeToken",
          "type": "address"
        },
        {
          "internalType": "uint256",
          "name": "_stakingEndBlock",
          "type": "uint256"
        },
        {
          "internalType": "contract IAutoBSW",
          "name": "_autoBSW",
          "type": "address"
        },
        {
          "internalType": "uint256",
          "name": "_holderPoolMinAmount",
          "type": "uint256"
        },
        {
          "internalType": "uint256",
          "name": "_limitPerUser",
          "type": "uint256"
        }
      ],
      "stateMutability": "nonpayable",
      "type": "constructor"
    },
    {
      "anonymous": false,
      "inputs": [
        {
          "indexed": false,
          "internalType": "address",
          "name": "token",
          "type": "address"
        }
      ],
      "name": "AddNewTokenReward",
      "type": "event"
    },
    {
      "anonymous": false,
      "inputs": [
        {
          "indexed": true,
          "internalType": "address",
          "name": "token",
          "type": "address"
        },
        {
          "indexed": false,
          "internalType": "uint256",
          "name": "rewardPerBlock",
          "type": "uint256"
        },
        {
          "indexed": false,
          "internalType": "uint256",
          "name": "startBlock",
          "type": "uint256"
        }
      ],
      "name": "ChangeTokenReward",
      "type": "event"
    },
    {
      "anonymous": false,
      "inputs": [
        {
          "indexed": false,
          "internalType": "address",
          "name": "token",
          "type": "address"
        }
      ],
      "name": "DisableTokenReward",
      "type": "event"
    },
    {
      "anonymous": false,
      "inputs": [
        {
          "indexed": true,
          "internalType": "address",
          "name": "user",
          "type": "address"
        },
        {
          "indexed": false,
          "internalType": "uint256",
          "name": "amount",
          "type": "uint256"
        }
      ],
      "name": "EmergencyWithdraw",
      "type": "event"
    },
    {
      "anonymous": false,
      "inputs": [
        {
          "indexed": true,
          "internalType": "address",
          "name": "previousOwner",
          "type": "address"
        },
        {
          "indexed": true,
          "internalType": "address",
          "name": "newOwner",
          "type": "address"
        }
      ],
      "name": "OwnershipTransferred",
      "type": "event"
    },
    {
      "anonymous": false,
      "inputs": [
        {
          "indexed": true,
          "internalType": "address",
          "name": "user",
          "type": "address"
        },
        {
          "indexed": false,
          "internalType": "uint256",
          "name": "amount",
          "type": "uint256"
        }
      ],
      "name": "StakeToken",
      "type": "event"
    },
    {
      "anonymous": false,
      "inputs": [
        {
          "indexed": true,
          "internalType": "address",
          "name": "user",
          "type": "address"
        },
        {
          "indexed": false,
          "internalType": "uint256",
          "name": "amount",
          "type": "uint256"
        }
      ],
      "name": "UnstakeToken",
      "type": "event"
    },
    {
      "inputs": [
        {
          "internalType": "address",
          "name": "_newToken",
          "type": "address"
        },
        {
          "internalType": "uint256",
          "name": "_startBlock",
          "type": "uint256"
        },
        {
          "internalType": "uint256",
          "name": "_rewardPerBlock",
          "type": "uint256"
        }
      ],
      "name": "addNewTokenReward",
      "outputs": [],
      "stateMutability": "nonpayable",
      "type": "function"
    },
    {
      "inputs": [
        {
          "internalType": "address",
          "name": "_token",
          "type": "address"
        },
        {
          "internalType": "uint256",
          "name": "_newRewardPerBlock",
          "type": "uint256"
        }
      ],
      "name": "changeRewardPerBlock",
      "outputs": [],
      "stateMutability": "nonpayable",
      "type": "function"
    },
    {
      "inputs": [
        {
          "internalType": "uint256",
          "name": "_newStakingEndBlock",
          "type": "uint256"
        }
      ],
      "name": "changeStakingEndBlock",
      "outputs": [],
      "stateMutability": "nonpayable",
      "type": "function"
    },
    {
      "inputs": [
        {
          "internalType": "address",
          "name": "_token",
          "type": "address"
        }
      ],
      "name": "disableTokenReward",
      "outputs": [],
      "stateMutability": "nonpayable",
      "type": "function"
    },
    {
      "inputs": [],
      "name": "emergencyRewardTokenWithdraw",
      "outputs": [],
      "stateMutability": "nonpayable",
      "type": "function"
    },
    {
      "inputs": [],
      "name": "emergencyUnstake",
      "outputs": [],
      "stateMutability": "nonpayable",
      "type": "function"
    },
    {
      "inputs": [
        {
          "internalType": "address",
          "name": "_token",
          "type": "address"
        },
        {
          "internalType": "uint256",
          "name": "_startBlock",
          "type": "uint256"
        },
        {
          "internalType": "uint256",
          "name": "_rewardPerBlock",
          "type": "uint256"
        }
      ],
      "name": "enableTokenReward",
      "outputs": [],
      "stateMutability": "nonpayable",
      "type": "function"
    },
    {
      "inputs": [
        {
          "internalType": "address",
          "name": "_user",
          "type": "address"
        }
      ],
      "name": "getHolderPoolAmount",
      "outputs": [
        {
          "internalType": "uint256",
          "name": "",
          "type": "uint256"
        }
      ],
      "stateMutability": "view",
      "type": "function"
    },
    {
      "inputs": [],
      "name": "getListRewardTokens",
      "outputs": [
        {
          "internalType": "address[]",
          "name": "list",
          "type": "address[]"
        }
      ],
      "stateMutability": "view",
      "type": "function"
    },
    {
      "inputs": [
        {
          "internalType": "uint256",
          "name": "_from",
          "type": "uint256"
        },
        {
          "internalType": "uint256",
          "name": "_to",
          "type": "uint256"
        }
      ],
      "name": "getMultiplier",
      "outputs": [
        {
          "internalType": "uint256",
          "name": "",
          "type": "uint256"
        }
      ],
      "stateMutability": "view",
      "type": "function"
    },
    {
      "inputs": [
        {
          "internalType": "address",
          "name": "_user",
          "type": "address"
        }
      ],
      "name": "getUserInfo",
      "outputs": [
        {
          "components": [
            {
              "components": [
                {
                  "internalType": "uint256",
                  "name": "rewardPerBlock",
                  "type": "uint256"
                },
                {
                  "internalType": "uint256",
                  "name": "startBlock",
                  "type": "uint256"
                },
                {
                  "internalType": "uint256",
                  "name": "accTokenPerShare",
                  "type": "uint256"
                },
                {
                  "internalType": "uint256",
                  "name": "rewardsForWithdrawal",
                  "type": "uint256"
                },
                {
                  "internalType": "bool",
                  "name": "enabled",
                  "type": "bool"
                }
              ],
              "internalType": "struct SmartChefV2.RewardToken[]",
              "name": "rewardTokens",
              "type": "tuple[]"
            },
            {
              "internalType": "uint256[]",
              "name": "pendingReward",
              "type": "uint256[]"
            },
            {
              "internalType": "uint256",
              "name": "totalStakedSupply",
              "type": "uint256"
            },
            {
              "internalType": "contract IERC20",
              "name": "stakeToken",
              "type": "address"
            },
            {
              "internalType": "uint256",
              "name": "stakingEndBlock",
              "type": "uint256"
            },
            {
              "internalType": "uint256",
              "name": "holderPoolAmount",
              "type": "uint256"
            },
            {
              "internalType": "uint256",
              "name": "holderPoolMinAmount",
              "type": "uint256"
            },
            {
              "internalType": "uint256",
              "name": "stakedAmount",
              "type": "uint256"
            },
            {
              "internalType": "uint256",
              "name": "maxLimitPerUser",
              "type": "uint256"
            }
          ],
          "internalType": "struct SmartChefV2.UserInfo",
          "name": "info",
          "type": "tuple"
        }
      ],
      "stateMutability": "view",
      "type": "function"
    },
    {
      "inputs": [
        {
          "internalType": "address",
          "name": "_user",
          "type": "address"
        }
      ],
      "name": "getUserStakedAmount",
      "outputs": [
        {
          "internalType": "uint256",
          "name": "",
          "type": "uint256"
        }
      ],
      "stateMutability": "view",
      "type": "function"
    },
    {
      "inputs": [],
      "name": "holderPoolMinAmount",
      "outputs": [
        {
          "internalType": "uint256",
          "name": "",
          "type": "uint256"
        }
      ],
      "stateMutability": "view",
      "type": "function"
    },
    {
      "inputs": [],
      "name": "lastRewardBlock",
      "outputs": [
        {
          "internalType": "uint256",
          "name": "",
          "type": "uint256"
        }
      ],
      "stateMutability": "view",
      "type": "function"
    },
    {
      "inputs": [
        {
          "internalType": "uint256",
          "name": "",
          "type": "uint256"
        }
      ],
      "name": "listRewardTokens",
      "outputs": [
        {
          "internalType": "address",
          "name": "",
          "type": "address"
        }
      ],
      "stateMutability": "view",
      "type": "function"
    },
    {
      "inputs": [],
      "name": "maxLimitPerUser",
      "outputs": [
        {
          "internalType": "uint256",
          "name": "",
          "type": "uint256"
        }
      ],
      "stateMutability": "view",
      "type": "function"
    },
    {
      "inputs": [],
      "name": "owner",
      "outputs": [
        {
          "internalType": "address",
          "name": "",
          "type": "address"
        }
      ],
      "stateMutability": "view",
      "type": "function"
    },
    {
      "inputs": [
        {
          "internalType": "address",
          "name": "_user",
          "type": "address"
        }
      ],
      "name": "pendingReward",
      "outputs": [
        {
          "internalType": "address[]",
          "name": "",
          "type": "address[]"
        },
        {
          "internalType": "uint256[]",
          "name": "",
          "type": "uint256[]"
        }
      ],
      "stateMutability": "view",
      "type": "function"
    },
    {
      "inputs": [],
      "name": "renounceOwnership",
      "outputs": [],
      "stateMutability": "nonpayable",
      "type": "function"
    },
    {
      "inputs": [
        {
          "internalType": "address",
          "name": "",
          "type": "address"
        },
        {
          "internalType": "address",
          "name": "",
          "type": "address"
        }
      ],
      "name": "rewardDebt",
      "outputs": [
        {
          "internalType": "uint256",
          "name": "",
          "type": "uint256"
        }
      ],
      "stateMutability": "view",
      "type": "function"
    },
    {
      "inputs": [
        {
          "internalType": "address",
          "name": "",
          "type": "address"
        }
      ],
      "name": "rewardTokens",
      "outputs": [
        {
          "internalType": "uint256",
          "name": "rewardPerBlock",
          "type": "uint256"
        },
        {
          "internalType": "uint256",
          "name": "startBlock",
          "type": "uint256"
        },
        {
          "internalType": "uint256",
          "name": "accTokenPerShare",
          "type": "uint256"
        },
        {
          "internalType": "uint256",
          "name": "rewardsForWithdrawal",
          "type": "uint256"
        },
        {
          "internalType": "bool",
          "name": "enabled",
          "type": "bool"
        }
      ],
      "stateMutability": "view",
      "type": "function"
    },
    {
      "inputs": [
        {
          "internalType": "uint256",
          "name": "_amount",
          "type": "uint256"
        }
      ],
      "name": "stake",
      "outputs": [],
      "stateMutability": "nonpayable",
      "type": "function"
    },
    {
      "inputs": [],
      "name": "stakeToken",
      "outputs": [
        {
          "internalType": "contract IERC20",
          "name": "",
          "type": "address"
        }
      ],
      "stateMutability": "view",
      "type": "function"
    },
    {
      "inputs": [
        {
          "internalType": "address",
          "name": "",
          "type": "address"
        }
      ],
      "name": "stakedAmount",
      "outputs": [
        {
          "internalType": "uint256",
          "name": "",
          "type": "uint256"
        }
      ],
      "stateMutability": "view",
      "type": "function"
    },
    {
      "inputs": [],
      "name": "stakingEndBlock",
      "outputs": [
        {
          "internalType": "uint256",
          "name": "",
          "type": "uint256"
        }
      ],
      "stateMutability": "view",
      "type": "function"
    },
    {
      "inputs": [],
      "name": "totalStakedSupply",
      "outputs": [
        {
          "internalType": "uint256",
          "name": "",
          "type": "uint256"
        }
      ],
      "stateMutability": "view",
      "type": "function"
    },
    {
      "inputs": [
        {
          "internalType": "address",
          "name": "newOwner",
          "type": "address"
        }
      ],
      "name": "transferOwnership",
      "outputs": [],
      "stateMutability": "nonpayable",
      "type": "function"
    },
    {
      "inputs": [
        {
          "internalType": "uint256",
          "name": "_amount",
          "type": "uint256"
        }
      ],
      "name": "unstake",
      "outputs": [],
      "stateMutability": "nonpayable",
      "type": "function"
    },
    {
      "inputs": [],
      "name": "updatePool",
      "outputs": [],
      "stateMutability": "nonpayable",
      "type": "function"
    },
    {
      "inputs": [],
      "name": "withdrawReward",
      "outputs": [],
      "stateMutability": "nonpayable",
      "type": "function"
    }
  ],
  "bytecode": "0x60806040523480156200001157600080fd5b5060405162002e7138038062002e718339810160408190526200003491620001a3565b6200003f336200013a565b600180556001600160a01b038516158015906200006457506001600160a01b03831615155b620000b65760405162461bcd60e51b815260206004820152601460248201527f616464726573732063616e74206265207a65726f00000000000000000000000060448201526064015b60405180910390fd5b438411620000f75760405162461bcd60e51b815260206004820152600d60248201526c62616420656e6420626c6f636b60981b6044820152606401620000ad565b600580546001600160a01b03199081166001600160a01b0397881617909155600694909455600780549094169290941691909117909155600855600955620001fc565b600080546001600160a01b038381166001600160a01b0319831681178455604051919092169283917f8be0079c531659141344cd1fd0a4f28419497f9722a3daafe3b4186f6b6457e09190a35050565b6001600160a01b0381168114620001a057600080fd5b50565b600080600080600060a08688031215620001bc57600080fd5b8551620001c9816200018a565b602087015160408801519196509450620001e3816200018a565b6060870151608090970151959894975095949392505050565b612c65806200020c6000396000f3fe608060405234801561001057600080fd5b50600436106101d95760003560e01c8063972de53f11610104578063caa0abec116100a2578063f40f0f5211610071578063f40f0f52146103cb578063f5ab16cc146103ec578063f5d0d14214610456578063f99318551461046957600080fd5b8063caa0abec14610394578063ce7678bd1461039d578063e3161ddd146103b0578063f2fde38b146103b857600080fd5b8063b6038f53116100de578063b6038f5314610368578063bcdc3cfc14610370578063c1f1179014610379578063c885bc581461038c57600080fd5b8063972de53f14610339578063a694fc3a1461034c578063a9f8d1811461035f57600080fd5b80636386c1c71161017c5780638da5cb5b1161014b5780638da5cb5b146102d95780638dbb1e3a146102ea57806393ad3ea9146102fd57806394465b211461031057600080fd5b80636386c1c71461027e578063715018a61461029e5780637589cf2f146102a65780637b4717a4146102ae57600080fd5b80632e17de78116101b85780632e17de78146102185780633f4547a11461022d57806351ed6a30146102405780635d8ef0801461026b57600080fd5b8062699780146101de5780630a122c8a146101fa57806325c66f0b14610203575b600080fd5b6101e760095481565b6040519081526020015b60405180910390f35b6101e760065481565b61020b610489565b6040516101f1919061263b565b61022b61022636600461264e565b61052e565b005b6101e761023b36600461267c565b610699565b600554610253906001600160a01b031681565b6040516001600160a01b0390911681526020016101f1565b61022b610279366004612699565b6106aa565b61029161028c36600461267c565b6108bb565b6040516101f1919061275a565b61022b610b3d565b61022b610ba3565b6101e76102bc3660046127fe565b600b60209081526000928352604080842090915290825290205481565b6000546001600160a01b0316610253565b6101e76102f8366004612837565b610cf2565b61022b61030b366004612699565b610d2d565b6101e761031e36600461267c565b6001600160a01b03166000908152600a602052604090205490565b61025361034736600461264e565b610f57565b61022b61035a36600461264e565b610f81565b6101e760035481565b61022b611127565b6101e760025481565b61022b61038736600461264e565b6112dc565b61022b6113b1565b6101e760085481565b61022b6103ab366004612859565b6113b9565b61022b611531565b61022b6103c636600461267c565b6116e1565b6103de6103d936600461267c565b6117c0565b6040516101f1929190612885565b61042c6103fa36600461267c565b600c60205260009081526040902080546001820154600283015460038401546004909401549293919290919060ff1685565b6040805195865260208601949094529284019190915260608301521515608082015260a0016101f1565b61022b61046436600461267c565b611aba565b6101e761047736600461267c565b600a6020526000908152604090205481565b60045460609067ffffffffffffffff8111156104a7576104a76128dc565b6040519080825280602002602001820160405280156104d0578160200160208202803683370190505b50600480546040805160208084028201810190925282815293945083018282801561052457602002820191906000526020600020905b81546001600160a01b03168152600190910190602001808311610506575b5050505050905090565b6002600154036105855760405162461bcd60e51b815260206004820152601f60248201527f5265656e7472616e637947756172643a207265656e7472616e742063616c6c0060448201526064015b60405180910390fd5b6002600155336000908152600a60205260409020548181108015906105aa5750600082115b6105f65760405162461bcd60e51b815260206004820152601860248201527f57726f6e6720746f6b656e20616d6f756e7420676976656e0000000000000000604482015260640161057c565b6105fe611c36565b336000908152600a60205260408120805484929061061d908490612908565b9250508190555081600260008282546106369190612908565b90915550610645905033611ed3565b60055461065c906001600160a01b03163384611fb3565b60405182815233907ff6e150e51c76005159a20fcadc3a9f06fba011914a1faeba1c7e8d82860643f79060200160405180910390a2505060018055565b60006106a48261205c565b92915050565b6000546001600160a01b031633146107045760405162461bcd60e51b815260206004820181905260248201527f4f776e61626c653a2063616c6c6572206973206e6f7420746865206f776e6572604482015260640161057c565b6001600160a01b03831661075a5760405162461bcd60e51b815260206004820152601660248201527f416464726573732073686f756c646e2774206265203000000000000000000000604482015260640161057c565b61076383612206565b156107b05760405162461bcd60e51b815260206004820152601c60248201527f546f6b656e20697320616c726561647920696e20746865206c69737400000000604482015260640161057c565b6004805460018101825560009182527f8a35acfbc15ff81a39ae7d344fd709f28e8600b4aa8c65c6b64bfe7fe36bd19b01805473ffffffffffffffffffffffffffffffffffffffff19166001600160a01b03861617905582900361083a5761081943600161291b565b6001600160a01b0384166000908152600c6020526040902060010155610859565b6001600160a01b0383166000908152600c602052604090206001018290555b6001600160a01b0383166000818152600c6020908152604091829020848155600401805460ff1916600117905590519182527fa7d6093ccca0a086bbf6c5577c544259472db28ad70173c6c6d73f08b514cc6c910160405180910390a1505050565b61091360405180610120016040528060608152602001606081526020016000815260200160006001600160a01b0316815260200160008152602001600081526020016000815260200160008152602001600081525090565b6004548067ffffffffffffffff81111561092f5761092f6128dc565b60405190808252806020026020018201604052801561099457816020015b6109816040518060a00160405280600081526020016000815260200160008152602001600081526020016000151581525090565b81526020019060019003908161094d5790505b50825260005b81811015610a4e57600c6000600483815481106109b9576109b961292e565b60009182526020808320909101546001600160a01b031683528281019390935260409182019020815160a08101835281548152600182015493810193909352600281015491830191909152600381015460608301526004015460ff16151560808201528351805183908110610a3057610a3061292e565b60200260200101819052508080610a4690612944565b91505061099a565b506040517ff40f0f520000000000000000000000000000000000000000000000000000000081526001600160a01b0384166004820152309063f40f0f5290602401600060405180830381865afa158015610aac573d6000803e3d6000fd5b505050506040513d6000823e601f3d908101601f19168201604052610ad49190810190612a1d565b60208401525060025460408301526005546001600160a01b031660608301526006546080830152610b0483610699565b60a08301525060085460c08201526001600160a01b039091166000908152600a602052604090205460e082015260095461010082015290565b6000546001600160a01b03163314610b975760405162461bcd60e51b815260206004820181905260248201527f4f776e61626c653a2063616c6c6572206973206e6f7420746865206f776e6572604482015260640161057c565b610ba160006122ca565b565b33600854610bb08261205c565b1015610bfe5760405162461bcd60e51b815260206004820152601e60248201527f4e656564206d6f7265207374616b6520696e20686f6c64657220706f6f6c0000604482015260640161057c565b336000908152600a60205260408120546002805491928392610c21908490612908565b9091555050336000908152600a602052604081208190555b600454811015610ca057336000908152600b602052604081206004805491929184908110610c6957610c6961292e565b60009182526020808320909101546001600160a01b0316835282019290925260400181205580610c9881612944565b915050610c39565b50600554610cb8906001600160a01b03163383611fb3565b60405181815233907f5fafa99d0643513820be26656b45130b01e1c03062e1266bf36f88cbd3bd9695906020015b60405180910390a25050565b60006006548211610d0e57610d078383612908565b90506106a4565b6006548310610d1f575060006106a4565b82600654610d079190612908565b6000546001600160a01b03163314610d875760405162461bcd60e51b815260206004820181905260248201527f4f776e61626c653a2063616c6c6572206973206e6f7420746865206f776e6572604482015260640161057c565b610d9083612206565b610ddc5760405162461bcd60e51b815260206004820152601560248201527f546f6b656e206e6f7420696e20746865206c6973740000000000000000000000604482015260640161057c565b6001600160a01b0383166000908152600c602052604090206004015460ff1615610e485760405162461bcd60e51b815260206004820152601760248201527f52657761726420746f6b656e20697320656e61626c6564000000000000000000604482015260640161057c565b81600003610e5e57610e5b43600161291b565b91505b43821015610ed45760405162461bcd60e51b815260206004820152602660248201527f537461727420626c6f636b204d757374206265206c61746572207468616e206360448201527f757272656e740000000000000000000000000000000000000000000000000000606482015260840161057c565b6001600160a01b0383166000908152600c6020526040902060048101805460ff191660019081179091558101839055819055610f0e611531565b60408051828152602081018490526001600160a01b038516917f89bea120a0e460176af0765b0198b51501bb005694fee4d838eabe792aebd534910160405180910390a2505050565b60048181548110610f6757600080fd5b6000918252602090912001546001600160a01b0316905081565b600260015403610fd35760405162461bcd60e51b815260206004820152601f60248201527f5265656e7472616e637947756172643a207265656e7472616e742063616c6c00604482015260640161057c565b6002600155806110255760405162461bcd60e51b815260206004820181905260248201527f416d6f756e74206d7573742062652067726561746572207468616e207a65726f604482015260640161057c565b61102d611c36565b600554611045906001600160a01b0316333084612327565b336000908152600a60205260408120805483929061106490849061291b565b9091555050600954336000908152600a602052604090205411156110ca5760405162461bcd60e51b815260206004820152600d60248201527f6c696d6974207265616368656400000000000000000000000000000000000000604482015260640161057c565b80600260008282546110dc919061291b565b909155506110eb905033611ed3565b60405181815233907f95d0aa551474aeee124f0d92b9adb26d65b9472f637c408329a728e40ad0e8ef9060200160405180910390a25060018055565b6000546001600160a01b031633146111815760405162461bcd60e51b815260206004820181905260248201527f4f776e61626c653a2063616c6c6572206973206e6f7420746865206f776e6572604482015260640161057c565b60005b6004548110156112d9576000600482815481106111a3576111a361292e565b60009182526020822001546005546001600160a01b03918216935016829003611240576002546040516370a0823160e01b81523060048201526001600160a01b038416906370a0823190602401602060405180830381865afa15801561120d573d6000803e3d6000fd5b505050506040513d601f19601f820116820180604052508101906112319190612ae2565b61123b9190612908565b6112a8565b6040516370a0823160e01b81523060048201526001600160a01b038316906370a0823190602401602060405180830381865afa158015611284573d6000803e3d6000fd5b505050506040513d601f19601f820116820180604052508101906112a89190612ae2565b905080156112c4576112c46001600160a01b0383163383611fb3565b505080806112d190612944565b915050611184565b50565b6000546001600160a01b031633146113365760405162461bcd60e51b815260206004820181905260248201527f4f776e61626c653a2063616c6c6572206973206e6f7420746865206f776e6572604482015260640161057c565b438110156113ac5760405162461bcd60e51b815260206004820152602960248201527f4d7573742062652067726561746572207468616e2063757272656e7420626c6f60448201527f636b206e756d6265720000000000000000000000000000000000000000000000606482015260840161057c565b600655565b610ba1611c36565b6000546001600160a01b031633146114135760405162461bcd60e51b815260206004820181905260248201527f4f776e61626c653a2063616c6c6572206973206e6f7420746865206f776e6572604482015260640161057c565b61141c82612206565b6114685760405162461bcd60e51b815260206004820152601560248201527f546f6b656e206e6f7420696e20746865206c6973740000000000000000000000604482015260640161057c565b6001600160a01b0382166000908152600c602052604090206004015460ff166114d35760405162461bcd60e51b815260206004820152601860248201527f52657761726420746f6b656e206e6f7420656e61626c65640000000000000000604482015260640161057c565b6114db611531565b6001600160a01b0382166000818152600c602052604090819020839055517f89bea120a0e460176af0765b0198b51501bb005694fee4d838eabe792aebd53490610ce69084904290918252602082015260400190565b600061153f60035443610cf2565b600254436003559091506000829003611556575050565b80600003611562575050565b60005b6004548110156116dc576000600482815481106115845761158461292e565b60009182526020808320909101546001600160a01b0316808352600c8252604092839020835160a081018552815481526001820154938101939093526002810154938301939093526003830154606083015260049092015460ff16158015608083015291925090806115fa575043816020015110155b156116065750506116ca565b600085611617836020015143610cf2565b10156116325761162b826020015143610cf2565b9050611635565b50845b8151600090611645908390612afb565b6001600160a01b0385166000908152600c602052604081206003018054929350839290919061167590849061291b565b9091555086905061168b8264e8d4a51000612afb565b6116959190612b12565b6001600160a01b0385166000908152600c6020526040812060020180549091906116c090849061291b565b9091555050505050505b806116d481612944565b915050611565565b505050565b6000546001600160a01b0316331461173b5760405162461bcd60e51b815260206004820181905260248201527f4f776e61626c653a2063616c6c6572206973206e6f7420746865206f776e6572604482015260640161057c565b6001600160a01b0381166117b75760405162461bcd60e51b815260206004820152602660248201527f4f776e61626c653a206e6577206f776e657220697320746865207a65726f206160448201527f6464726573730000000000000000000000000000000000000000000000000000606482015260840161057c565b6112d9816122ca565b6001600160a01b0381166000908152600a602052604081205460045460609283929167ffffffffffffffff8111156117fa576117fa6128dc565b604051908082528060200260200182016040528015611823578160200160208202803683370190505b50905081600003611898576004818180548060200260200160405190810160405280929190818152602001828054801561188657602002820191906000526020600020905b81546001600160a01b03168152600190910190602001808311611868575b50505050509150935093505050915091565b6002546003546000906118ab9043610cf2565b90506000805b600454811015611a4c576000600482815481106118d0576118d061292e565b60009182526020808320909101546001600160a01b0316808352600c8252604092839020835160a081018552815481526001820154938101939093526002810154938301939093526003830154606083015260049092015460ff1615156080820152909150841580159061194357508515155b80156119555750608081015115156001145b156119c75760008561196b836020015143610cf2565b10156119865761197f826020015143610cf2565b9050611989565b50845b815187906119979083612afb565b6119a69064e8d4a51000612afb565b6119b09190612b12565b82604001516119bf919061291b565b9450506119cf565b806040015193505b6001600160a01b03808c166000908152600b602090815260408083209386168352929052205464e8d4a51000611a05868b612afb565b611a0f9190612b12565b611a199190612908565b878481518110611a2b57611a2b61292e565b60200260200101818152505050508080611a4490612944565b9150506118b1565b5060048481805480602002602001604051908101604052809291908181526020018280548015611aa557602002820191906000526020600020905b81546001600160a01b03168152600190910190602001808311611a87575b50505050509150965096505050505050915091565b6000546001600160a01b03163314611b145760405162461bcd60e51b815260206004820181905260248201527f4f776e61626c653a2063616c6c6572206973206e6f7420746865206f776e6572604482015260640161057c565b611b1d81612206565b611b695760405162461bcd60e51b815260206004820152601560248201527f546f6b656e206e6f7420696e20746865206c6973740000000000000000000000604482015260640161057c565b6001600160a01b0381166000908152600c602052604090206004015460ff16611bd45760405162461bcd60e51b815260206004820152601660248201527f54616b656e20616c72656164792064697361626c656400000000000000000000604482015260640161057c565b611bdc611531565b6001600160a01b0381166000818152600c6020908152604091829020600401805460ff1916905590519182527fcf76d099d6ef777382dd3991cd21607d0afa106434cfa3c984a29db4498b3d0e910160405180910390a150565b33600854611c438261205c565b1015611c915760405162461bcd60e51b815260206004820152601e60248201527f4e656564206d6f7265207374616b6520696e20686f6c64657220706f6f6c0000604482015260640161057c565b611c99611531565b336000908152600a602090815260408083205460048054835181860281018601909452808452919493909190830182828015611cfe57602002820191906000526020600020905b81546001600160a01b03168152600190910190602001808311611ce0575b5050505050905081600003611d1257505050565b60005b8151811015611ecd576000600c6000848481518110611d3657611d3661292e565b60200260200101516001600160a01b03166001600160a01b0316815260200190815260200160002090506000600b6000336001600160a01b03166001600160a01b031681526020019081526020016000206000858581518110611d9b57611d9b61292e565b60200260200101516001600160a01b03166001600160a01b031681526020019081526020016000205464e8d4a51000836002015487611dda9190612afb565b611de49190612b12565b611dee9190612908565b90508015611eb85780826003016000828254611e0a9190612908565b9091555050600282015464e8d4a5100090611e259087612afb565b611e2f9190612b12565b336000908152600b602052604081208651909190879087908110611e5557611e5561292e565b60200260200101516001600160a01b03166001600160a01b0316815260200190815260200160002081905550611eb83382868681518110611e9857611e9861292e565b60200260200101516001600160a01b0316611fb39092919063ffffffff16565b50508080611ec590612944565b915050611d15565b50505050565b60005b600454811015611faf5764e8d4a51000600c600060048481548110611efd57611efd61292e565b60009182526020808320909101546001600160a01b0390811684528382019490945260409283018220600201549387168252600a90522054611f3f9190612afb565b611f499190612b12565b6001600160a01b0383166000908152600b602052604081206004805491929185908110611f7857611f7861292e565b60009182526020808320909101546001600160a01b0316835282019290925260400190205580611fa781612944565b915050611ed6565b5050565b6040516001600160a01b0383166024820152604481018290526116dc9084907fa9059cbb00000000000000000000000000000000000000000000000000000000906064015b60408051601f198184030181529190526020810180517bffffffffffffffffffffffffffffffffffffffffffffffffffffffff167fffffffff0000000000000000000000000000000000000000000000000000000090931692909217909152612378565b600754604080517f3a98ef3900000000000000000000000000000000000000000000000000000000815290516000926001600160a01b031691633a98ef399160048083019260209291908290030181865afa1580156120bf573d6000803e3d6000fd5b505050506040513d601f19601f820116820180604052508101906120e39190612ae2565b6007546040517f1959a0020000000000000000000000000000000000000000000000000000000081526001600160a01b03858116600483015290911690631959a00290602401608060405180830381865afa158015612146573d6000803e3d6000fd5b505050506040513d601f19601f8201168201806040525081019061216a9190612b34565b51600754604080517f722713f700000000000000000000000000000000000000000000000000000000815290516001600160a01b039092169163722713f7916004808201926020929091908290030181865afa1580156121ce573d6000803e3d6000fd5b505050506040513d601f19601f820116820180604052508101906121f29190612ae2565b6121fc9190612afb565b6106a49190612b12565b600080600480548060200260200160405190810160405280929190818152602001828054801561225f57602002820191906000526020600020905b81546001600160a01b03168152600190910190602001808311612241575b5050505050905060005b81518110156122c057836001600160a01b031682828151811061228e5761228e61292e565b60200260200101516001600160a01b0316036122ae575060019392505050565b806122b881612944565b915050612269565b5060009392505050565b600080546001600160a01b0383811673ffffffffffffffffffffffffffffffffffffffff19831681178455604051919092169283917f8be0079c531659141344cd1fd0a4f28419497f9722a3daafe3b4186f6b6457e09190a35050565b6040516001600160a01b0380851660248301528316604482015260648101829052611ecd9085907f23b872dd0000000000000000000000000000000000000000000000000000000090608401611ff8565b60006123cd826040518060400160405280602081526020017f5361666545524332303a206c6f772d6c6576656c2063616c6c206661696c6564815250856001600160a01b031661245d9092919063ffffffff16565b8051909150156116dc57808060200190518101906123eb9190612b9a565b6116dc5760405162461bcd60e51b815260206004820152602a60248201527f5361666545524332303a204552433230206f7065726174696f6e20646964206e60448201527f6f74207375636365656400000000000000000000000000000000000000000000606482015260840161057c565b606061246c8484600085612476565b90505b9392505050565b6060824710156124ee5760405162461bcd60e51b815260206004820152602660248201527f416464726573733a20696e73756666696369656e742062616c616e636520666f60448201527f722063616c6c0000000000000000000000000000000000000000000000000000606482015260840161057c565b6001600160a01b0385163b6125455760405162461bcd60e51b815260206004820152601d60248201527f416464726573733a2063616c6c20746f206e6f6e2d636f6e7472616374000000604482015260640161057c565b600080866001600160a01b031685876040516125619190612be0565b60006040518083038185875af1925050503d806000811461259e576040519150601f19603f3d011682016040523d82523d6000602084013e6125a3565b606091505b50915091506125b38282866125be565b979650505050505050565b606083156125cd57508161246f565b8251156125dd5782518084602001fd5b8160405162461bcd60e51b815260040161057c9190612bfc565b600081518084526020808501945080840160005b838110156126305781516001600160a01b03168752958201959082019060010161260b565b509495945050505050565b60208152600061246f60208301846125f7565b60006020828403121561266057600080fd5b5035919050565b6001600160a01b03811681146112d957600080fd5b60006020828403121561268e57600080fd5b813561246f81612667565b6000806000606084860312156126ae57600080fd5b83356126b981612667565b95602085013595506040909401359392505050565b600081518084526020808501945080840160005b83811015612630578151805188528381015184890152604080820151908901526060808201519089015260809081015115159088015260a090960195908201906001016126e2565b600081518084526020808501945080840160005b838110156126305781518752958201959082019060010161273e565b60208152600082516101208060208501526127796101408501836126ce565b91506020850151601f19858403016040860152612796838261272a565b9250506040850151606085015260608501516127bd60808601826001600160a01b03169052565b50608085015160a085015260a085015160c085015260c085015160e085015260e0850151610100818187015280870151838701525050508091505092915050565b6000806040838503121561281157600080fd5b823561281c81612667565b9150602083013561282c81612667565b809150509250929050565b6000806040838503121561284a57600080fd5b50508035926020909101359150565b6000806040838503121561286c57600080fd5b823561287781612667565b946020939093013593505050565b60408152600061289860408301856125f7565b82810360208481019190915284518083528582019282019060005b818110156128cf578451835293830193918301916001016128b3565b5090979650505050505050565b634e487b7160e01b600052604160045260246000fd5b634e487b7160e01b600052601160045260246000fd5b818103818111156106a4576106a46128f2565b808201808211156106a4576106a46128f2565b634e487b7160e01b600052603260045260246000fd5b600060018201612956576129566128f2565b5060010190565b604051601f8201601f1916810167ffffffffffffffff81118282101715612986576129866128dc565b604052919050565b600067ffffffffffffffff8211156129a8576129a86128dc565b5060051b60200190565b600082601f8301126129c357600080fd5b815160206129d86129d38361298e565b61295d565b82815260059290921b840181019181810190868411156129f757600080fd5b8286015b84811015612a1257805183529183019183016129fb565b509695505050505050565b60008060408385031215612a3057600080fd5b825167ffffffffffffffff80821115612a4857600080fd5b818501915085601f830112612a5c57600080fd5b81516020612a6c6129d38361298e565b82815260059290921b84018101918181019089841115612a8b57600080fd5b948201945b83861015612ab2578551612aa381612667565b82529482019490820190612a90565b91880151919650909350505080821115612acb57600080fd5b50612ad8858286016129b2565b9150509250929050565b600060208284031215612af457600080fd5b5051919050565b80820281158282048414176106a4576106a46128f2565b600082612b2f57634e487b7160e01b600052601260045260246000fd5b500490565b600060808284031215612b4657600080fd5b6040516080810181811067ffffffffffffffff82111715612b6957612b696128dc565b8060405250825181526020830151602082015260408301516040820152606083015160608201528091505092915050565b600060208284031215612bac57600080fd5b8151801515811461246f57600080fd5b60005b83811015612bd7578181015183820152602001612bbf565b50506000910152565b60008251612bf2818460208701612bbc565b9190910192915050565b6020815260008251806020840152612c1b816040850160208701612bbc565b601f01601f1916919091016040019291505056fea2646970667358221220ed86a6b0d7f356466a4682b334f1e43fe623fc4a83f1fb73dc16140ffafd2f0864736f6c63430008130033",
  "linkReferences": {},
  "deployedLinkReferences": {}
}