{
  "_format": "hh-sol-artifact-1",
  "contractName": "stakingBiswap",
  "sourceName": "contracts/stakingBiswap.sol",
  "abi": [
    {
      "inputs": [],
      "stateMutability": "nonpayable",
      "type": "constructor"
    },
    {
      "inputs": [],
      "name": "youDontHaveBalance",
      "type": "error"
    },
    {
      "inputs": [
        {
          "internalType": "address",
          "name": "",
          "type": "address"
        }
      ],
      "name": "isStaking",
      "outputs": [
        {
          "internalType": "bool",
          "name": "",
          "type": "bool"
        }
      ],
      "stateMutability": "view",
      "type": "function"
    },
    {
      "inputs": [],
      "name": "owner",
      "outputs": [
        {
          "internalType": "address",
          "name": "",
          "type": "address"
        }
      ],
      "stateMutability": "view",
      "type": "function"
    },
    {
      "inputs": [
        {
          "internalType": "uint256",
          "name": "_amount",
          "type": "uint256"
        }
      ],
      "name": "stakeToken",
      "outputs": [],
      "stateMutability": "nonpayable",
      "type": "function"
    },
    {
      "inputs": [
        {
          "internalType": "uint256",
          "name": "",
          "type": "uint256"
        }
      ],
      "name": "stakerAddress",
      "outputs": [
        {
          "internalType": "address",
          "name": "",
          "type": "address"
        }
      ],
      "stateMutability": "view",
      "type": "function"
    },
    {
      "inputs": [
        {
          "internalType": "address",
          "name": "",
          "type": "address"
        },
        {
          "internalType": "uint256",
          "name": "",
          "type": "uint256"
        }
      ],
      "name": "staking",
      "outputs": [
        {
          "internalType": "uint256",
          "name": "amount",
          "type": "uint256"
        }
      ],
      "stateMutability": "view",
      "type": "function"
    }
  ],
  "bytecode": "0x608060405234801561001057600080fd5b50600180546001600160a01b031990811633179091556000805490911673b8a6f44fdd902627a578876ab9fedcc1f244eda817905561061c806100546000396000f3fe608060405234801561001057600080fd5b50600436106100675760003560e01c8063940670451161005057806394067045146100cf57806395dfea77146100e2578063cda6b8471461010357600080fd5b80636f49712b1461006c5780638da5cb5b146100a4575b600080fd5b61008f61007a366004610546565b60036020526000908152604090205460ff1681565b60405190151581526020015b60405180910390f35b6001546100b7906001600160a01b031681565b6040516001600160a01b03909116815260200161009b565b6100b76100dd366004610568565b610118565b6100f56100f0366004610581565b610142565b60405190815260200161009b565b610116610111366004610568565b610171565b005b6004818154811061012857600080fd5b6000918252602090912001546001600160a01b0316905081565b6002602052816000526040600020818154811061015e57600080fd5b6000918252602090912001549150829050565b60008111610205576040517f08c379a000000000000000000000000000000000000000000000000000000000815260206004820152602360248201527f5374616b6520616d6f756e74206d75737420626520677265617465722074686160448201527f6e20300000000000000000000000000000000000000000000000000000000000606482015260840160405180910390fd5b6000546040517f70a0823100000000000000000000000000000000000000000000000000000000815233600482015282916001600160a01b0316906370a0823190602401602060405180830381865afa158015610266573d6000803e3d6000fd5b505050506040513d601f19601f8201168201806040525081019061028a91906105ab565b10156102c2576040517fa6baffc900000000000000000000000000000000000000000000000000000000815260040160405180910390fd5b3360008181526002602090815260408083208151808401835286815281546001810183559185529284209251920191909155815490517f23b872dd00000000000000000000000000000000000000000000000000000000815260048101939093523060248401526044830184905290916001600160a01b03909116906323b872dd906064016020604051808303816000875af1158015610366573d6000803e3d6000fd5b505050506040513d601f19601f8201168201806040525081019061038a91906105c4565b9050801561049a576000546040517f095ea7b30000000000000000000000000000000000000000000000000000000081526001600160a01b0390911660048201819052602482018490529063095ea7b3906044016020604051808303816000875af11580156103fd573d6000803e3d6000fd5b505050506040513d601f19601f8201168201806040525081019061042191906105c4565b506000546040517fa694fc3a000000000000000000000000000000000000000000000000000000008152600481018490526001600160a01b039091169063a694fc3a90602401600060405180830381600087803b15801561048157600080fd5b505af1158015610495573d6000803e3d6000fd5b505050505b3360009081526003602052604090205460ff1661050c57600480546001810182556000919091527f8a35acfbc15ff81a39ae7d344fd709f28e8600b4aa8c65c6b64bfe7fe36bd19b0180547fffffffffffffffffffffffff000000000000000000000000000000000000000016331790555b5050336000908152600360205260409020805460ff19166001179055565b80356001600160a01b038116811461054157600080fd5b919050565b60006020828403121561055857600080fd5b6105618261052a565b9392505050565b60006020828403121561057a57600080fd5b5035919050565b6000806040838503121561059457600080fd5b61059d8361052a565b946020939093013593505050565b6000602082840312156105bd57600080fd5b5051919050565b6000602082840312156105d657600080fd5b8151801515811461056157600080fdfea2646970667358221220a8c03ebe2630213f484244e801181d237844993dd2cbce288537a09b2957da6f64736f6c63430008120033",
  "linkReferences": {},
  "deployedLinkReferences": {}
}