{
  "_format": "hh-sol-artifact-1",
  "contractName": "stakingBiswap",
  "sourceName": "contracts/stakingBiswap.sol",
  "abi": [
    {
      "inputs": [],
      "stateMutability": "nonpayable",
      "type": "constructor"
    },
    {
      "inputs": [],
      "name": "youDontHaveBalance",
      "type": "error"
    },
    {
      "inputs": [
        {
          "internalType": "uint256",
          "name": "_amount",
          "type": "uint256"
        }
      ],
      "name": "depositToBSW",
      "outputs": [],
      "stateMutability": "nonpayable",
      "type": "function"
    },
    {
      "inputs": [
        {
          "internalType": "address",
          "name": "",
          "type": "address"
        }
      ],
      "name": "isStaking",
      "outputs": [
        {
          "internalType": "bool",
          "name": "",
          "type": "bool"
        }
      ],
      "stateMutability": "view",
      "type": "function"
    },
    {
      "inputs": [],
      "name": "owner",
      "outputs": [
        {
          "internalType": "address",
          "name": "",
          "type": "address"
        }
      ],
      "stateMutability": "view",
      "type": "function"
    },
    {
      "inputs": [
        {
          "internalType": "uint256",
          "name": "_amount",
          "type": "uint256"
        }
      ],
      "name": "stakeToken",
      "outputs": [],
      "stateMutability": "nonpayable",
      "type": "function"
    },
    {
      "inputs": [
        {
          "internalType": "uint256",
          "name": "",
          "type": "uint256"
        }
      ],
      "name": "stakerAddress",
      "outputs": [
        {
          "internalType": "address",
          "name": "",
          "type": "address"
        }
      ],
      "stateMutability": "view",
      "type": "function"
    },
    {
      "inputs": [
        {
          "internalType": "address",
          "name": "",
          "type": "address"
        },
        {
          "internalType": "uint256",
          "name": "",
          "type": "uint256"
        }
      ],
      "name": "staking",
      "outputs": [
        {
          "internalType": "uint256",
          "name": "amount",
          "type": "uint256"
        }
      ],
      "stateMutability": "view",
      "type": "function"
    }
  ],
  "bytecode": "0x608060405234801561001057600080fd5b50600380546001600160a01b0319908116331790915560018054821673b8a6f44fdd902627a578876ab9fedcc1f244eda81790556002805482167397a16ff6fd63a46bf973671762a39f3780cda73d1790556000805490911673965f527d9159dce6288a2219db51fc6eef120dd1179055610861806100906000396000f3fe608060405234801561001057600080fd5b50600436106100725760003560e01c8063940670451161005057806394067045146100ef57806395dfea7714610102578063cda6b8471461012357600080fd5b80636f49712b146100775780638da5cb5b146100af5780638f6e8a76146100da575b600080fd5b61009a61008536600461073d565b60056020526000908152604090205460ff1681565b60405190151581526020015b60405180910390f35b6003546100c2906001600160a01b031681565b6040516001600160a01b0390911681526020016100a6565b6100ed6100e836600461075f565b610136565b005b6100c26100fd36600461075f565b61032d565b610115610110366004610778565b610357565b6040519081526020016100a6565b6100ed61013136600461075f565b610386565b6003546001600160a01b031633146101955760405162461bcd60e51b815260206004820152601260248201527f796f757220617265206e6f74206f776e6572000000000000000000000000000060448201526064015b60405180910390fd5b6000546040516370a0823160e01b815230600482015282916001600160a01b0316906370a0823190602401602060405180830381865afa1580156101dd573d6000803e3d6000fd5b505050506040513d601f19601f8201168201806040525081019061020191906107a2565b10156102205760405163a6baffc960e01b815260040160405180910390fd5b6000546002546040517f095ea7b30000000000000000000000000000000000000000000000000000000081526001600160a01b0391821660048201526024810184905291169063095ea7b3906044016020604051808303816000875af115801561028e573d6000803e3d6000fd5b505050506040513d601f19601f820116820180604052508101906102b291906107bb565b506002546040517fb6b55f25000000000000000000000000000000000000000000000000000000008152600481018390526001600160a01b039091169063b6b55f2590602401600060405180830381600087803b15801561031257600080fd5b505af1158015610326573d6000803e3d6000fd5b5050505050565b6006818154811061033d57600080fd5b6000918252602090912001546001600160a01b0316905081565b6004602052816000526040600020818154811061037357600080fd5b6000918252602090912001549150829050565b6103c46040518060400160405280600881526020017f6b65747575757575000000000000000000000000000000000000000000000000815250610694565b6000811161043a5760405162461bcd60e51b815260206004820152602360248201527f5374616b6520616d6f756e74206d75737420626520677265617465722074686160448201527f6e20300000000000000000000000000000000000000000000000000000000000606482015260840161018c565b6000546040516370a0823160e01b815233600482015282916001600160a01b0316906370a0823190602401602060405180830381865afa158015610482573d6000803e3d6000fd5b505050506040513d601f19601f820116820180604052508101906104a691906107a2565b10156104c55760405163a6baffc960e01b815260040160405180910390fd5b3360008181526004602081815260408084208151808401835287815281546001810183559186529285209251920191909155915491517f23b872dd00000000000000000000000000000000000000000000000000000000815290810192909252306024830152604482018390526001600160a01b0316906323b872dd906064016020604051808303816000875af1158015610564573d6000803e3d6000fd5b505050506040513d601f19601f8201168201806040525081019061058891906107bb565b506105c76040518060400160405280600981526020017f6b65747575757575320000000000000000000000000000000000000000000000815250610694565b3360009081526005602052604090205460ff1661063957600680546001810182556000919091527ff652222313e28459528d920b65115c16c04f3efc82aaedc97be59f3f377c0d3f0180547fffffffffffffffffffffffff000000000000000000000000000000000000000016331790555b33600090815260056020908152604091829020805460ff191660011790558151808301909252600982527f6b657475757575753300000000000000000000000000000000000000000000009082015261069190610694565b50565b610691816040516024016106a891906107dd565b60408051601f198184030181529190526020810180517bffffffffffffffffffffffffffffffffffffffffffffffffffffffff167f41304fac0000000000000000000000000000000000000000000000000000000017905280516a636f6e736f6c652e6c6f67602083016000808483855afa5050505050565b80356001600160a01b038116811461073857600080fd5b919050565b60006020828403121561074f57600080fd5b61075882610721565b9392505050565b60006020828403121561077157600080fd5b5035919050565b6000806040838503121561078b57600080fd5b61079483610721565b946020939093013593505050565b6000602082840312156107b457600080fd5b5051919050565b6000602082840312156107cd57600080fd5b8151801515811461075857600080fd5b600060208083528351808285015260005b8181101561080a578581018301518582016040015282016107ee565b506000604082860101526040601f19601f830116850101925050509291505056fea264697066735822122094d55df0503ce9a48595ec5e7393605b1a6fd982c1ee4ee9bf5a076680c6ef8464736f6c63430008120033",
  "linkReferences": {},
  "deployedLinkReferences": {}
}