{
  "_format": "hh-sol-artifact-1",
  "contractName": "stakingBiswap",
  "sourceName": "contracts/stakingBiswap.sol",
  "abi": [
    {
      "inputs": [],
      "stateMutability": "nonpayable",
      "type": "constructor"
    },
    {
      "inputs": [],
      "name": "youDontHaveBalance",
      "type": "error"
    },
    {
      "inputs": [
        {
          "internalType": "address",
          "name": "",
          "type": "address"
        }
      ],
      "name": "isStaking",
      "outputs": [
        {
          "internalType": "bool",
          "name": "",
          "type": "bool"
        }
      ],
      "stateMutability": "view",
      "type": "function"
    },
    {
      "inputs": [],
      "name": "owner",
      "outputs": [
        {
          "internalType": "address",
          "name": "",
          "type": "address"
        }
      ],
      "stateMutability": "view",
      "type": "function"
    },
    {
      "inputs": [
        {
          "internalType": "uint256",
          "name": "_amount",
          "type": "uint256"
        }
      ],
      "name": "stakeRex",
      "outputs": [],
      "stateMutability": "nonpayable",
      "type": "function"
    },
    {
      "inputs": [
        {
          "internalType": "uint256",
          "name": "",
          "type": "uint256"
        }
      ],
      "name": "stakerAddress",
      "outputs": [
        {
          "internalType": "address",
          "name": "",
          "type": "address"
        }
      ],
      "stateMutability": "view",
      "type": "function"
    },
    {
      "inputs": [
        {
          "internalType": "address",
          "name": "",
          "type": "address"
        },
        {
          "internalType": "uint256",
          "name": "",
          "type": "uint256"
        }
      ],
      "name": "staking",
      "outputs": [
        {
          "internalType": "uint256",
          "name": "amount",
          "type": "uint256"
        }
      ],
      "stateMutability": "view",
      "type": "function"
    }
  ],
  "bytecode": "0x608060405234801561001057600080fd5b50600180546001600160a01b031990811633179091556000805490911673b8a6f44fdd902627a578876ab9fedcc1f244eda817905561061c806100546000396000f3fe608060405234801561001057600080fd5b50600436106100675760003560e01c80638da5cb5b116100505780638da5cb5b146100b957806394067045146100e457806395dfea77146100f757600080fd5b8063024c4e1d1461006c5780636f49712b14610081575b600080fd5b61007f61007a36600461052a565b610118565b005b6100a461008f36600461055f565b60036020526000908152604090205460ff1681565b60405190151581526020015b60405180910390f35b6001546100cc906001600160a01b031681565b6040516001600160a01b0390911681526020016100b0565b6100cc6100f236600461052a565b6104d1565b61010a610105366004610581565b6104fb565b6040519081526020016100b0565b600081116101ac576040517f08c379a000000000000000000000000000000000000000000000000000000000815260206004820152602360248201527f5374616b6520616d6f756e74206d75737420626520677265617465722074686160448201527f6e20300000000000000000000000000000000000000000000000000000000000606482015260840160405180910390fd5b6000546040517f70a0823100000000000000000000000000000000000000000000000000000000815233600482015282916001600160a01b0316906370a0823190602401602060405180830381865afa15801561020d573d6000803e3d6000fd5b505050506040513d601f19601f8201168201806040525081019061023191906105ab565b1015610269576040517fa6baffc900000000000000000000000000000000000000000000000000000000815260040160405180910390fd5b3360008181526002602090815260408083208151808401835286815281546001810183559185529284209251920191909155815490517f23b872dd00000000000000000000000000000000000000000000000000000000815260048101939093523060248401526044830184905290916001600160a01b03909116906323b872dd906064016020604051808303816000875af115801561030d573d6000803e3d6000fd5b505050506040513d601f19601f8201168201806040525081019061033191906105c4565b90508015610441576000546040517f095ea7b30000000000000000000000000000000000000000000000000000000081526001600160a01b0390911660048201819052602482018490529063095ea7b3906044016020604051808303816000875af11580156103a4573d6000803e3d6000fd5b505050506040513d601f19601f820116820180604052508101906103c891906105c4565b506000546040517fa694fc3a000000000000000000000000000000000000000000000000000000008152600481018490526001600160a01b039091169063a694fc3a90602401600060405180830381600087803b15801561042857600080fd5b505af115801561043c573d6000803e3d6000fd5b505050505b3360009081526003602052604090205460ff166104b357600480546001810182556000919091527f8a35acfbc15ff81a39ae7d344fd709f28e8600b4aa8c65c6b64bfe7fe36bd19b0180547fffffffffffffffffffffffff000000000000000000000000000000000000000016331790555b5050336000908152600360205260409020805460ff19166001179055565b600481815481106104e157600080fd5b6000918252602090912001546001600160a01b0316905081565b6002602052816000526040600020818154811061051757600080fd5b6000918252602090912001549150829050565b60006020828403121561053c57600080fd5b5035919050565b80356001600160a01b038116811461055a57600080fd5b919050565b60006020828403121561057157600080fd5b61057a82610543565b9392505050565b6000806040838503121561059457600080fd5b61059d83610543565b946020939093013593505050565b6000602082840312156105bd57600080fd5b5051919050565b6000602082840312156105d657600080fd5b8151801515811461057a57600080fdfea264697066735822122007d2b982f6c3e19dcf1cef262cfe039c582efa93c34935ede749d2e032a7c36e64736f6c63430008120033",
  "linkReferences": {},
  "deployedLinkReferences": {}
}